S00B000045564D2E7372656331
S11300000C942A000C9447000C9447000C9447006D
S11300100C9447000C9447000C9447000C94470040
S11300200C9447000C9447000C9447000C94470030
S11300300C9447000C9447000C9447000C94470020
S11300400C9447000C9447000C9447000C94470010
S11300500C94470011241FBECFE5D8E0DEBFCDBF0E
S113006010E0A0E6B0E0E2E0FAE002C005900D92F4
S1130070A037B107D9F710E0A0E7B0E001C01D92A6
S1130080A437B107E1F70E94D3020C94FF040C9447
S1130090000040E00E94500008950E94BF010895AE
S11300A0843409F471C0853448F4823499F183347A
S11300B008F04DC0813409F083C00FC0823651F17D
S11300C0833620F4813609F07BC007C0833609F4F7
S11300D03EC0843609F074C057C0413069F42AB375
S11300E081E090E0AC0102C0440F551F6A95E2F72D
S11300F0BA01622B6ABB08952AB381E090E0AC0197
S113010002C0440F551F6A95E2F7BA016095622355
S11301106ABB0895413069F427B381E090E0AC01F3
S113012002C0440F551F6A95E2F7BA01622B67BB00
S1130130089527B381E090E0AC0102C0440F551F3D
S11301406A95E2F7BA016095622367BB089541306E
S113015069F424B381E090E0AC0102C0440F551F60
S11301606A95E2F7BA01622B64BB089524B381E077
S113017090E0AC0102C0440F551F6A95E2F7BA0142
S11301806095622364BB0895413069F421B381E032
S113019090E0AC0102C0440F551F6A95E2F7BA0122
S11301A0622B61BB089521B381E090E0AC0102C0F1
S11301B0440F551F6A95E2F7BA016095622361BB4B
S11301C00895843409F471C0853448F4823499F173
S11301D0833408F04DC0813409F083C00FC08236E7
S11301E051F1833620F4813609F07BC007C0833691
S11301F009F43EC0843609F074C057C0413069F434
S11302002BB381E090E0AC0102C0440F551F6A9506
S1130210E2F7BA01622B6BBB08952BB381E090E047
S1130220AC0102C0440F551F6A95E2F7BA0160950C
S113023062236BBB0895413069F428B381E090E0F8
S1130240AC0102C0440F551F6A95E2F7BA01622B54
S113025068BB089528B381E090E0AC0102C0440F6C
S1130260551F6A95E2F7BA016095622368BB089549
S1130270413069F425B381E090E0AC0102C0440F41
S1130280551F6A95E2F7BA01622B65BB089525B341
S113029081E090E0AC0102C0440F551F6A95E2F77B
S11302A0BA016095622365BB0895413069F422B3B5
S11302B081E090E0AC0102C0440F551F6A95E2F75B
S11302C0BA01622B62BB089522B381E090E0AC01D5
S11302D002C0440F551F6A95E2F7BA016095622384
S11302E062BB0895843409F43DC0853440F48234FB
S11302F0F9F0833450F5813409F040C00CC08236E3
S1130300B9F0833618F48136C9F505C08336E9F0AF
S11303108436A1F527C02BB381E090E0AC0102C084
S1130320440F551F6A95E2F7BA0162276BBB089523
S113033028B381E090E0AC0102C0440F551F6A95D8
S1130340E2F7BA01622768BB089525B381E090E023
S1130350AC0102C0440F551F6A95E2F7BA01622747
S113036065BB089522B381E090E0AC0102C0440F64
S1130370551F6A95E2F7BA01622762BB0895843477
S1130380B1F1853438F48234E1F0833428F58134D2
S1130390C1F50CC08236A9F0833618F4813689F58C
S11303A005C08336C9F0843661F521C029B330E035
S11303B0C90102C0959587956A95E2F7982F9170C7
S11303C020C026B330E0C90102C0959587956A958F
S11303D0E2F7982F917015C023B330E0C90102C031
S11303E0959587956A95E2F7982F91700AC020B386
S11303F030E0C90102C0959587956A95E2F7982F78
S11304009170892F08958434D9F0853438F4823476
S113041099F0833498F48134A1F40CC0823661F0ED
S1130420833618F4813669F405C0833639F084368E
S113043041F406C06ABB089567BB089564BB089580
S113044061BB08958434D9F0853438F4823499F04A
S1130450833498F48134A1F40CC0823661F083367D
S113046018F4813669F405C0833639F0843641F4D2
S113047006C06BBB089568BB089565BB089562BB55
S11304800895843409F1853438F48234A9F083342E
S1130490B8F48134E1F40CC0823671F0833618F478
S11304A08136A9F405C0833659F0843681F40CC032
S11304B08BB380958BBB089588B3809588BB0895D2
S11304C085B3809585BB089582B3809582BB0895DA
S11304D08434D9F0853438F4823499F0833498F430
S11304E08134A1F40CC0823661F0833618F481366D
S11304F069F405C0833639F0843641F406C099B3F3
S113050005C096B303C093B301C090B3892F089577
S11305100E94E1000895CF93DF93C82FD62F462F72
S1130520417060E00E94E1004D2F469541708C2F90
S113053061E00E94E1004D2F4695469541708C2F55
S113054062E00E94E100D695D695D6954D2F417074
S11305508C2F63E00E94E100DF91CF910895CF9347
S1130560DF93C82FD62F462F417064E00E94E1002C
S11305704D2F469541708C2F65E00E94E1004D2F70
S11305804695469541708C2F66E00E94E100D69511
S1130590D695D6954D2F41708C2F67E00E94E100CF
S11305A0DF91CF91089584E460E00E94490084E4DF
S11305B061E00E94490084E462E00E94490084E40E
S11305C063E00E94490084E464E00E9449000E94C0
S11305D08A0480E690E00E94C90481E06DE00E94F4
S11305E0D80484E690E00E94C90482E061E00E949D
S11305F0D80488E690E00E94C90482E06DE00E947D
S1130600D8048CE690E00E94C904CAE000E610E039
S11306100F2EF4E6EF2EF0E0FF2EF02D0F2EF8E66D
S1130620CF2EF0E0DF2EF02D0F2EFCE6AF2EF0E003
S1130630BF2EF02D84E460E00E944D00813081F5EE
S1130640809171008F5F809371008A3050F481E053
S113065063E00E94D80480917100805D0E94590477
S113066015C081E063E00E94D804809171006C2F72
S11306700E94F304805D0E945904809171006C2FE4
S11306800E94F304892F805D0E9459048FE79AE148
S1130690A6E081509040A040E1F700C00000CACF1E
S11306A084E461E00E944D00813081F58091730003
S11306B08F5F809373008A3050F481E06FE00E9472
S11306C0D80480917300805D0E94590415C081E0B4
S11306D06FE00E94D804809173006C2F0E94F30491
S11306E0805D0E945904809173006C2F0E94F30472
S11306F0892F805D0E9459048FE79AE1A6E081501A
S11307009040A040E1F700C0000094CF84E462E090
S11307100E944D00813081F5809170008F5F80933D
S113072070008A3050F482E063E00E94D804809123
S11307307000805D0E94590415C082E063E00E944D
S1130740D804809170006C2F0E94F304805D0E9495
S11307505904809170006C2F0E94F304892F805DEE
S11307600E9459048FE79AE1A6E081509040A0408E
S1130770E1F700C000005ECF84E463E00E944D0016
S1130780813081F5809172008F5F809372008A308E
S113079050F482E06FE00E94D80480917200805D82
S11307A00E94590415C082E06FE00E94D804809131
S11307B072006C2F0E94F304805D0E9459048091A2
S11307C072006C2F0E94F304892F805D0E945904EB
S11307D08FE79AE1A6E081509040A040E1F700C085
S11307E0000028CF84E464E00E944D00813009F0C9
S11307F021CF109272001092700010927300109228
S113080071000E947604C8010E94C90481E06DE071
S11308100E94D804C7010E94C90482E061E00E94DA
S1130820D804C6010E94C90482E06DE00E94D80485
S1130830C5010E94C9048FE79AE1A6E08150904067
S1130840A040E1F700C00000F5CE82E460E041E0A2
S11308500E94E1008FE99FE00197F1F700C00000DA
S113086082E460E040E00E94E1008FE99FE00197AC
S1130870F1F700C000000895CF93C82F82E461E02F
S113088040E00E94E1006C2F62956F7081E40E9449
S1130890AF020E94250481E46C2F0E94AF020E94E3
S11308A025048FEC97E00197F1F700C00000CF9189
S11308B00895CF93C82F82E461E041E00E94E100F3
S11308C06C2F62956F7081E40E94AF020E94250430
S11308D081E46C2F0E94AF020E9425048FEC97E004
S11308E00197F1F700C00000CF91089581E00E94C4
S11308F03C048FE496E40197F1F700C000000895EA
S113090082E00E943C048FE496E40197F1F700C072
S1130910000008958FE799EAA3E081509040A04039
S1130920E1F700C0000081E464E041E00E9450006F
S113093081E465E041E00E94500081E466E041E02A
S11309400E94500081E467E041E00E94500082E48C
S113095060E041E00E94500082E461E041E00E94D6
S1130960500082E462E041E00E94500082E462E0D0
S113097040E00E94E1000E94800488E20E943C045E
S11309808CE00E943C040E94760486E00E943C04B1
S11309900895CF93DF93EC018881882331F0219669
S11309A00E94590489918823D9F7DF91CF91089542
S11309B0282F2150223070F4613170F4662371F0D5
S11309C0813019F4962F91580AC0823041F4962F41
S11309D0915405C090E803C090E801C090E8892FC5
S11309E00E943C040895991B79E004C0991F96174E
S11309F008F0961B881F7A95C9F780950895F89496
S1050A00FFCF22
S1130A02413D3000423D3000433D3000443D300022
S9030000FC
